{"abi":[{"type":"function","name":"count","inputs":[],"outputs":[{"name":"","type":"uint256","internalType":"uint256"}],"stateMutability":"view"},{"type":"function","name":"plus","inputs":[{"name":"amount","type":"uint256","internalType":"uint256"}],"outputs":[],"stateMutability":"nonpayable"}],"bytecode":{"object":"0x60806040526000805534801561001457600080fd5b5060ed806100236000396000f3fe6080604052348015600f57600080fd5b506004361060325760003560e01c806306661abd14603757806395270080146051575b600080fd5b603f60005481565b60405190815260200160405180910390f35b6060605c3660046079565b6062565b005b80600080828254607191906091565b909155505050565b600060208284031215608a57600080fd5b5035919050565b8082018082111560b157634e487b7160e01b600052601160045260246000fd5b9291505056fea26469706673582212209ee8b9d287418a92165cb1d58f9ef1189142e4cf02a978d06de0e3518e9c945164736f6c63430008170033","linkReferences":{}},"methodIdentifiers":{"count()":"06661abd","plus(uint256)":"95270080"},"id":20}